{
  "contractName": "CoinFlip",
  "abi": [
    {
      "anonymous": false,
      "inputs": [
        {
          "indexed": false,
          "internalType": "string",
          "name": "message",
          "type": "string"
        },
        {
          "indexed": false,
          "internalType": "address",
          "name": "playerAddress",
          "type": "address"
        },
        {
          "indexed": false,
          "internalType": "uint256",
          "name": "queryIdInt",
          "type": "uint256"
        }
      ],
      "name": "betResult",
      "type": "event"
    },
    {
      "anonymous": false,
      "inputs": [
        {
          "indexed": false,
          "internalType": "uint256",
          "name": "queryId",
          "type": "uint256"
        }
      ],
      "name": "queryCreated",
      "type": "event"
    },
    {
      "inputs": [],
      "name": "owner",
      "outputs": [
        {
          "internalType": "address",
          "name": "",
          "type": "address"
        }
      ],
      "stateMutability": "view",
      "type": "function",
      "constant": true
    },
    {
      "inputs": [
        {
          "internalType": "uint256",
          "name": "betOn",
          "type": "uint256"
        }
      ],
      "name": "flip",
      "outputs": [],
      "stateMutability": "payable",
      "type": "function",
      "payable": true
    },
    {
      "inputs": [
        {
          "internalType": "bytes32",
          "name": "_myid",
          "type": "bytes32"
        },
        {
          "internalType": "string",
          "name": "_result",
          "type": "string"
        }
      ],
      "name": "__callback",
      "outputs": [],
      "stateMutability": "nonpayable",
      "type": "function"
    },
    {
      "inputs": [
        {
          "internalType": "bytes32",
          "name": "_queryId",
          "type": "bytes32"
        },
        {
          "internalType": "string",
          "name": "_result",
          "type": "string"
        },
        {
          "internalType": "bytes",
          "name": "_proof",
          "type": "bytes"
        }
      ],
      "name": "__callback",
      "outputs": [],
      "stateMutability": "nonpayable",
      "type": "function"
    }
  ],
  "bytecode": "0x6080604052336000806101000a81548173ffffffffffffffffffffffffffffffffffffffff021916908373ffffffffffffffffffffffffffffffffffffffff16021790555061281b806100536000396000f3fe60806040526004361061003f5760003560e01c8063221e885d1461004457806327dc297e1461007257806338bbfa50146101445780638da5cb5b146102ad575b600080fd5b6100706004803603602081101561005a57600080fd5b8101908080359060200190929190505050610304565b005b34801561007e57600080fd5b506101426004803603604081101561009557600080fd5b8101908080359060200190929190803590602001906401000000008111156100bc57600080fd5b8201836020820111156100ce57600080fd5b803590602001918460018302840111640100000000831117156100f057600080fd5b91908080601f016020809104026020016040519081016040528093929190818152602001838380828437600081840152601f19601f82011690508083019250505050505050919291929050505061037a565b005b34801561015057600080fd5b506102ab6004803603606081101561016757600080fd5b81019080803590602001909291908035906020019064010000000081111561018e57600080fd5b8201836020820111156101a057600080fd5b803590602001918460018302840111640100000000831117156101c257600080fd5b91908080601f016020809104026020016040519081016040528093929190818152602001838380828437600081840152601f19601f8201169050808301925050505050505091929192908035906020019064010000000081111561022557600080fd5b82018360208201111561023757600080fd5b8035906020019184600183028401116401000000008311171561025957600080fd5b91908080601f016020809104026020016040519081016040528093929190818152602001838380828437600081840152601f19601f8201169050808301925050505050505091929192905050506103bd565b005b3480156102b957600080fd5b506102c261048f565b604051808273ffffffffffffffffffffffffffffffffffffffff1673ffffffffffffffffffffffffffffffffffffffff16815260200191505060405180910390f35b6000809050600062030d409050600061031f836001846104b4565b9050600034905060008260001c905061033b3383888685610a4f565b7f3275d04446fc1cb6f63cc5279330e10d444b8c9d2d36544021be5789cde876c5816040518082815260200191505060405180910390a1505050505050565b6103b9828260006040519080825280601f01601f1916602001820160405280156103b35781602001600182028038833980820191505090505b506103bd565b5050565b6103c5610abf565b73ffffffffffffffffffffffffffffffffffffffff163373ffffffffffffffffffffffffffffffffffffffff16146103fc57600080fd5b60006002836040516020018082805190602001908083835b602083106104375780518252602082019150602081019050602083039250610414565b6001836020036101000a0380198251168184511680821785525050505050509050019150506040516020818303038152906040528051906020012060001c8161047c57fe5b0690506104898482610de1565b50505050565b6000809054906101000a900473ffffffffffffffffffffffffffffffffffffffff1681565b600080831180156104c6575060208311155b6104cf57600080fd5b600a84029350606060016040519080825280601f01601f19166020018201604052801561050b5781602001600182028038833980820191505090505b5090508360f81b8160008151811061051f57fe5b60200101907effffffffffffffffffffffffffffffffffffffffffffffffffffffffffffff1916908160001a905350606060206040519080825280601f01601f1916602001820160405280156105845781602001600182028038833980820191505090505b509050606060206040519080825280601f01601f1916602001820160405280156105bd5781602001600182028038833980820191505090505b50905060006105ca61103b565b905060208352424118600143034018602084015260208252806020830152606060206040519080825280601f01601f19166020018201604052801561061e5781602001600182028038833980820191505090505b509050886020820152606060086040519080825280601f01601f19166020018201604052801561065d5781602001600182028038833980820191505090505b509050610670826018600884600061135b565b506106796126c1565b604051806080016040528087815260200188815260200186815260200184815250905060006106de6040518060400160405280600681526020017f72616e646f6d0000000000000000000000000000000000000000000000000000815250838c6113ba565b9050606060086040519080825280601f01601f1916602001820160405280156107165781602001600182028038833980820191505090505b50905060208401517f0100000000000000000000000000000000000000000000000000000000000000810460278301537e01000000000000000000000000000000000000000000000000000000000000810460268301537d010000000000000000000000000000000000000000000000000000000000810460258301537c0100000000000000000000000000000000000000000000000000000000810460248301537b01000000000000000000000000000000000000000000000000000000810460238301537a010000000000000000000000000000000000000000000000000000810460228301537901000000000000000000000000000000000000000000000000008104602183015378010000000000000000000000000000000000000000000000008104602083015350610a3c82828560016004811061085557fe5b602002015160028760006004811061086957fe5b60200201516040518082805190602001908083835b602083106108a1578051825260208201915060208101905060208303925061087e565b6001836020036101000a038019825116818451168082178552505050505050905001915050602060405180830381855afa1580156108e3573d6000803e3d6000fd5b5050506040513d60208110156108f857600080fd5b81019080805190602001909291905050508760026004811061091657fe5b60200201516040516020018085805190602001908083835b60208310610951578051825260208201915060208101905060208303925061092e565b6001836020036101000a03801982511681845116808217855250505050505090500184805190602001908083835b602083106109a2578051825260208201915060208101905060208303925061097f565b6001836020036101000a03801982511681845116808217855250505050505090500183815260200182805190602001908083835b602083106109f957805182526020820191506020810190506020830392506109d6565b6001836020036101000a03801982511681845116808217855250505050505090500194505050505060405160208183030381529060405280519060200120611729565b8199505050505050505050509392505050565b610a576126e8565b85816000019073ffffffffffffffffffffffffffffffffffffffff16908173ffffffffffffffffffffffffffffffffffffffff1681525050848160200181815250508381604001818152505081816060018181525050610ab78184611745565b505050505050565b60008073ffffffffffffffffffffffffffffffffffffffff16600260009054906101000a900473ffffffffffffffffffffffffffffffffffffffff1673ffffffffffffffffffffffffffffffffffffffff161480610b4757506000610b45600260009054906101000a900473ffffffffffffffffffffffffffffffffffffffff166117c5565b145b15610b5857610b5660006117d0565b505b600260009054906101000a900473ffffffffffffffffffffffffffffffffffffffff1673ffffffffffffffffffffffffffffffffffffffff166338cc48316040518163ffffffff1660e01b8152600401602060405180830381600087803b158015610bc257600080fd5b505af1158015610bd6573d6000803e3d6000fd5b505050506040513d6020811015610bec57600080fd5b810190808051906020019092919050505073ffffffffffffffffffffffffffffffffffffffff16600160009054906101000a900473ffffffffffffffffffffffffffffffffffffffff1673ffffffffffffffffffffffffffffffffffffffff1614610d3757600260009054906101000a900473ffffffffffffffffffffffffffffffffffffffff1673ffffffffffffffffffffffffffffffffffffffff166338cc48316040518163ffffffff1660e01b8152600401602060405180830381600087803b158015610cbb57600080fd5b505af1158015610ccf573d6000803e3d6000fd5b505050506040513d6020811015610ce557600080fd5b8101908080519060200190929190505050600160006101000a81548173ffffffffffffffffffffffffffffffffffffffff021916908373ffffffffffffffffffffffffffffffffffffffff1602179055505b600160009054906101000a900473ffffffffffffffffffffffffffffffffffffffff1673ffffffffffffffffffffffffffffffffffffffff1663c281d19e6040518163ffffffff1660e01b8152600401602060405180830381600087803b158015610da157600080fd5b505af1158015610db5573d6000803e3d6000fd5b505050506040513d6020811015610dcb57600080fd5b8101908080519060200190929190505050905090565b606060006006600085815260200190815260200160002060020154905082811415610ee5576040518060400160405280600781526020017f596f7520776f6e00000000000000000000000000000000000000000000000000815250915060006006600086815260200190815260200160002060000160009054906101000a900473ffffffffffffffffffffffffffffffffffffffff1690506000600260066000888152602001908152602001600020600101540290508173ffffffffffffffffffffffffffffffffffffffff166108fc829081150290604051600060405180830381858888f19350505050158015610edd573d6000803e3d6000fd5b505050610f1e565b6040518060400160405280600881526020017f596f75206c6f736500000000000000000000000000000000000000000000000081525091505b60008460001c90507fc9b9d0ff12e517a4308286048498edb638076d5e07c6e361abcf2271741ded76836006600088815260200190815260200160002060000160009054906101000a900473ffffffffffffffffffffffffffffffffffffffff168360405180806020018473ffffffffffffffffffffffffffffffffffffffff1673ffffffffffffffffffffffffffffffffffffffff168152602001838152602001828103825285818151815260200191508051906020019080838360005b83811015610ff8578082015181840152602081019050610fdd565b50505050905090810190601f1680156110255780820380516001836020036101000a031916815260200191505b5094505050505060405180910390a15050505050565b60008073ffffffffffffffffffffffffffffffffffffffff16600260009054906101000a900473ffffffffffffffffffffffffffffffffffffffff1673ffffffffffffffffffffffffffffffffffffffff1614806110c3575060006110c1600260009054906101000a900473ffffffffffffffffffffffffffffffffffffffff166117c5565b145b156110d4576110d260006117d0565b505b600260009054906101000a900473ffffffffffffffffffffffffffffffffffffffff1673ffffffffffffffffffffffffffffffffffffffff166338cc48316040518163ffffffff1660e01b8152600401602060405180830381600087803b15801561113e57600080fd5b505af1158015611152573d6000803e3d6000fd5b505050506040513d602081101561116857600080fd5b810190808051906020019092919050505073ffffffffffffffffffffffffffffffffffffffff16600160009054906101000a900473ffffffffffffffffffffffffffffffffffffffff1673ffffffffffffffffffffffffffffffffffffffff16146112b357600260009054906101000a900473ffffffffffffffffffffffffffffffffffffffff1673ffffffffffffffffffffffffffffffffffffffff166338cc48316040518163ffffffff1660e01b8152600401602060405180830381600087803b15801561123757600080fd5b505af115801561124b573d6000803e3d6000fd5b505050506040513d602081101561126157600080fd5b8101908080519060200190929190505050600160006101000a81548173ffffffffffffffffffffffffffffffffffffffff021916908373ffffffffffffffffffffffffffffffffffffffff1602179055505b600160009054906101000a900473ffffffffffffffffffffffffffffffffffffffff1673ffffffffffffffffffffffffffffffffffffffff1663abaa5f3e6040518163ffffffff1660e01b815260040160206040518083038186803b15801561131b57600080fd5b505afa15801561132f573d6000803e3d6000fd5b505050506040513d602081101561134557600080fd5b8101908080519060200190929190505050905090565b606060008285019050808451101561137257600080fd5b600086602001905060008460200190505b8688602001018210156113ab5781890151808288015250602082019150602081019050611383565b85935050505095945050505050565b60008073ffffffffffffffffffffffffffffffffffffffff16600260009054906101000a900473ffffffffffffffffffffffffffffffffffffffff1673ffffffffffffffffffffffffffffffffffffffff16148061144257506000611440600260009054906101000a900473ffffffffffffffffffffffffffffffffffffffff166117c5565b145b156114535761145160006117d0565b505b600260009054906101000a900473ffffffffffffffffffffffffffffffffffffffff1673ffffffffffffffffffffffffffffffffffffffff166338cc48316040518163ffffffff1660e01b8152600401602060405180830381600087803b1580156114bd57600080fd5b505af11580156114d1573d6000803e3d6000fd5b505050506040513d60208110156114e757600080fd5b810190808051906020019092919050505073ffffffffffffffffffffffffffffffffffffffff16600160009054906101000a900473ffffffffffffffffffffffffffffffffffffffff1673ffffffffffffffffffffffffffffffffffffffff161461163257600260009054906101000a900473ffffffffffffffffffffffffffffffffffffffff1673ffffffffffffffffffffffffffffffffffffffff166338cc48316040518163ffffffff1660e01b8152600401602060405180830381600087803b1580156115b657600080fd5b505af11580156115ca573d6000803e3d6000fd5b505050506040513d60208110156115e057600080fd5b8101908080519060200190929190505050600160006101000a81548173ffffffffffffffffffffffffffffffffffffffff021916908373ffffffffffffffffffffffffffffffffffffffff1602179055505b6060600460405190808252806020026020018201604052801561166957816020015b60608152602001906001900390816116545790505b5090508360006004811061167957fe5b60200201518160008151811061168b57fe5b6020026020010181905250836001600481106116a357fe5b6020020151816001815181106116b557fe5b6020026020010181905250836002600481106116cd57fe5b6020020151816002815181106116df57fe5b6020026020010181905250836003600481106116f757fe5b60200201518160038151811061170957fe5b602002602001018190525061171f8582856117e1565b9150509392505050565b8060046000848152602001908152602001600020819055505050565b816006600083815260200190815260200160002060008201518160000160006101000a81548173ffffffffffffffffffffffffffffffffffffffff021916908373ffffffffffffffffffffffffffffffffffffffff1602179055506020820151816001015560408201518160020155606082015181600301559050505050565b6000813b9050919050565b60006117da611d47565b9050919050565b60008073ffffffffffffffffffffffffffffffffffffffff16600260009054906101000a900473ffffffffffffffffffffffffffffffffffffffff1673ffffffffffffffffffffffffffffffffffffffff16148061186957506000611867600260009054906101000a900473ffffffffffffffffffffffffffffffffffffffff166117c5565b145b1561187a5761187860006117d0565b505b600260009054906101000a900473ffffffffffffffffffffffffffffffffffffffff1673ffffffffffffffffffffffffffffffffffffffff166338cc48316040518163ffffffff1660e01b8152600401602060405180830381600087803b1580156118e457600080fd5b505af11580156118f8573d6000803e3d6000fd5b505050506040513d602081101561190e57600080fd5b810190808051906020019092919050505073ffffffffffffffffffffffffffffffffffffffff16600160009054906101000a900473ffffffffffffffffffffffffffffffffffffffff1673ffffffffffffffffffffffffffffffffffffffff1614611a5957600260009054906101000a900473ffffffffffffffffffffffffffffffffffffffff1673ffffffffffffffffffffffffffffffffffffffff166338cc48316040518163ffffffff1660e01b8152600401602060405180830381600087803b1580156119dd57600080fd5b505af11580156119f1573d6000803e3d6000fd5b505050506040513d6020811015611a0757600080fd5b8101908080519060200190929190505050600160006101000a81548173ffffffffffffffffffffffffffffffffffffffff021916908373ffffffffffffffffffffffffffffffffffffffff1602179055505b6000600160009054906101000a900473ffffffffffffffffffffffffffffffffffffffff1673ffffffffffffffffffffffffffffffffffffffff16632ef3accc86856040518363ffffffff1660e01b81526004018080602001838152602001828103825284818151815260200191508051906020019080838360005b83811015611af0578082015181840152602081019050611ad5565b50505050905090810190601f168015611b1d5780820380516001836020036101000a031916815260200191505b509350505050602060405180830381600087803b158015611b3d57600080fd5b505af1158015611b51573d6000803e3d6000fd5b505050506040513d6020811015611b6757600080fd5b81019080805190602001909291905050509050823a02670de0b6b3a764000001811115611b9a576000801b915050611d40565b6060611ba58561229e565b9050600160009054906101000a900473ffffffffffffffffffffffffffffffffffffffff1673ffffffffffffffffffffffffffffffffffffffff1663c55c1cb68360008985896040518663ffffffff1660e01b8152600401808581526020018060200180602001848152602001838103835286818151815260200191508051906020019080838360005b83811015611c4a578082015181840152602081019050611c2f565b50505050905090810190601f168015611c775780820380516001836020036101000a031916815260200191505b50838103825285818151815260200191508051906020019080838360005b83811015611cb0578082015181840152602081019050611c95565b50505050905090810190601f168015611cdd5780820380516001836020036101000a031916815260200191505b5096505050505050506020604051808303818588803b158015611cff57600080fd5b505af1158015611d13573d6000803e3d6000fd5b50505050506040513d6020811015611d2a57600080fd5b8101908080519060200190929190505050925050505b9392505050565b600080611d67731d3b2638a7cc9f2cb3d298a3da7a90b67e5506ed6117c5565b1115611e0957731d3b2638a7cc9f2cb3d298a3da7a90b67e5506ed600260006101000a81548173ffffffffffffffffffffffffffffffffffffffff021916908373ffffffffffffffffffffffffffffffffffffffff160217905550611e006040518060400160405280600b81526020017f6574685f6d61696e6e657400000000000000000000000000000000000000000081525061231e565b6001905061229b565b6000611e2873c03a2615d5efaf5f49f60b7bb6583eaec212fdf16117c5565b1115611eca5773c03a2615d5efaf5f49f60b7bb6583eaec212fdf1600260006101000a81548173ffffffffffffffffffffffffffffffffffffffff021916908373ffffffffffffffffffffffffffffffffffffffff160217905550611ec16040518060400160405280600c81526020017f6574685f726f707374656e33000000000000000000000000000000000000000081525061231e565b6001905061229b565b6000611ee973b7a07bcf2ba2f2703b24c0691b5278999c59ac7e6117c5565b1115611f8b5773b7a07bcf2ba2f2703b24c0691b5278999c59ac7e600260006101000a81548173ffffffffffffffffffffffffffffffffffffffff021916908373ffffffffffffffffffffffffffffffffffffffff160217905550611f826040518060400160405280600981526020017f6574685f6b6f76616e000000000000000000000000000000000000000000000081525061231e565b6001905061229b565b6000611faa73146500cfd35b22e4a392fe0adc06de1a1368ed486117c5565b111561204c5773146500cfd35b22e4a392fe0adc06de1a1368ed48600260006101000a81548173ffffffffffffffffffffffffffffffffffffffff021916908373ffffffffffffffffffffffffffffffffffffffff1602179055506120436040518060400160405280600b81526020017f6574685f72696e6b65627900000000000000000000000000000000000000000081525061231e565b6001905061229b565b600061206b73a2998efd205fb9d4b4963afb70778d6354ad3a416117c5565b111561210d5773a2998efd205fb9d4b4963afb70778d6354ad3a41600260006101000a81548173ffffffffffffffffffffffffffffffffffffffff021916908373ffffffffffffffffffffffffffffffffffffffff1602179055506121046040518060400160405280600a81526020017f6574685f676f65726c690000000000000000000000000000000000000000000081525061231e565b6001905061229b565b600061212c736f485c8bf6fc43ea212e93bbf8ce046c7f1cb4756117c5565b111561219057736f485c8bf6fc43ea212e93bbf8ce046c7f1cb475600260006101000a81548173ffffffffffffffffffffffffffffffffffffffff021916908373ffffffffffffffffffffffffffffffffffffffff1602179055506001905061229b565b60006121af7320e12a1f859b3feae5fb2a0a32c18f5a65555bbf6117c5565b1115612213577320e12a1f859b3feae5fb2a0a32c18f5a65555bbf600260006101000a81548173ffffffffffffffffffffffffffffffffffffffff021916908373ffffffffffffffffffffffffffffffffffffffff1602179055506001905061229b565b60006122327351efaf4c8b3c9afbd5ab9f4bbc82784ab6ef8faa6117c5565b1115612296577351efaf4c8b3c9afbd5ab9f4bbc82784ab6ef8faa600260006101000a81548173ffffffffffffffffffffffffffffffffffffffff021916908373ffffffffffffffffffffffffffffffffffffffff1602179055506001905061229b565b600090505b90565b60606122a8612338565b6122b0612726565b6122bc81610400612344565b6122c58161238e565b60008090505b8351811015612307576122fa8482815181106122e357fe5b60200260200101518361239c90919063ffffffff16565b80806001019150506122cb565b50612311816123c1565b8060000151915050919050565b8060039080519060200190612334929190612740565b5050565b60405180590338823950565b600081905060006020828161235557fe5b061461236e576020818161236557fe5b06602003810190505b808360200181815250506040518084526000815281810160405250505050565b6123998160046123cf565b50565b6123a982600283516123f0565b6123bc818361253090919063ffffffff16565b505050565b6123cc8160076123cf565b50565b6123ec601f60058360ff16901b17836125db90919063ffffffff16565b5050565b6017811161241c576124178160058460ff16901b60ff1617846125db90919063ffffffff16565b61252b565b60ff811161245d57612441601860058460ff16901b17846125db90919063ffffffff16565b6124578160018561261b9092919063ffffffff16565b5061252a565b61ffff811161249f57612483601960058460ff16901b17846125db90919063ffffffff16565b6124998160028561261b9092919063ffffffff16565b50612529565b63ffffffff81116124e3576124c7601a60058460ff16901b17846125db90919063ffffffff16565b6124dd8160048561261b9092919063ffffffff16565b50612528565b67ffffffffffffffff81116125275761250f601b60058460ff16901b17846125db90919063ffffffff16565b6125258160088561261b9092919063ffffffff16565b505b5b5b5b5b505050565b612538612726565b826020015183600001515183510111156125685761256783600261256186602001518651612682565b0261269e565b5b60008060008451905085518051602081830101945086518101825260208701935050505b602081106125af578151835260208301925060208201915060208103905061258c565b60006001826020036101000a039050801983511681855116818117865250508694505050505092915050565b816020015160018360000151510111156126015761260082600284602001510261269e565b5b815180516020818301018381536001820183525050505050565b612623612726565b8360200151846000015151830111156126515761265084600261264a876020015186612682565b0261269e565b5b60006001836101000a0390508451805184818301018684198251161781528582018352505050849150509392505050565b60008183111561269457829050612698565b8190505b92915050565b6060826000015190506126b18383612344565b6126bb8382612530565b50505050565b60405180608001604052806004905b60608152602001906001900390816126d05790505090565b6040518060800160405280600073ffffffffffffffffffffffffffffffffffffffff1681526020016000815260200160008152602001600081525090565b604051806040016040528060608152602001600081525090565b828054600181600116156101000203166002900490600052602060002090601f016020900481019282601f1061278157805160ff19168380011785556127af565b828001600101855582156127af579182015b828111156127ae578251825591602001919060010190612793565b5b5090506127bc91906127c0565b5090565b6127e291905b808211156127de5760008160009055506001016127c6565b5090565b9056fea26469706673582212204d5fd9da9f1a215d99ce273c274427007f22c0134141a69fa15eaf38c0c5680e64736f6c63430006020033",
  "source": "//import \"./Ownable.sol\";\npragma solidity >0.5.8 <0.6.5;\nimport \"./Ownable.sol\";\nimport \"./provableAPI_0.6.sol\";\ncontract CoinFlip is  Ownable, usingProvable{\n\n  uint256 constant NUM_RANDOM_BYTES_REQUESTED = 1;\n\n\n  struct Bet {\n        address payable playerAddress;\n        uint value;\n        uint bet;\n        uint queryIdInt;\n    }\n      event betResult(string message, address playerAddress, uint queryIdInt);\n      event queryCreated(uint queryId);\n     mapping (bytes32 => Bet) private bets;\n\n\n     function flip(uint betOn) public payable {\n       uint256 QUERY_EXECUTION_DELAY = 0;\n       uint256 GAS_FOR_CALLBACK = 200000;\n       bytes32 queryId = provable_newRandomDSQuery(\n        QUERY_EXECUTION_DELAY,\n        NUM_RANDOM_BYTES_REQUESTED,\n        GAS_FOR_CALLBACK);\n        uint val = msg.value;\n        uint queryIdInt = uint(queryId);\n\n        createBet(msg.sender,val,betOn,queryId,queryIdInt);\n         emit queryCreated(queryIdInt);\n\n     }\n    function __callback(bytes32 _queryId, string memory _result, bytes memory _proof) public override{\n         require(msg.sender == provable_cbAddress());\n\n         uint randomNumber = uint(keccak256(abi.encodePacked(_result))) % 2;\n         checkResult(_queryId,randomNumber);\n    }\n\n    function createBet(address payable add, uint val, uint bet, bytes32 queryId, uint queryIdInt) private {\n\n      Bet memory newBet;\n      newBet.playerAddress = add;\n      newBet.value = val;\n      newBet.bet = bet;\n      newBet.queryIdInt = queryIdInt;\n\n      insertBet(newBet,queryId);\n\n\n    }\n\n     function insertBet(Bet memory newBet, bytes32 queryId) private {\n       bets[queryId] = newBet;\n    }\n\n    function checkResult(bytes32 queryId, uint randomNumber) private {\n      string memory message;\n       uint playerBetOn = bets[queryId].bet;\n\n       if(playerBetOn == randomNumber){\n         message = \"You won\";\n            address payable playerAddress = bets[queryId].playerAddress;\n            uint reward = bets[queryId].value * 2;\n              playerAddress.transfer(reward);\n       }else{\n         message = \"You lose\";\n       }\n        uint queryIdInt = uint(queryId);\n       emit betResult(message, bets[queryId].playerAddress,queryIdInt);\n\n    }\n\n\n\n}",
  "sourcePath": "/Users/abelsebhatu/Desktop/ethereum_advance_cource/dapp_CoinFlip/contracts/CoinFlip.sol",
  "compiler": {
    "name": "solc",
    "version": "0.6.2+commit.bacdbe57.Emscripten.clang"
  },
  "schemaVersion": "3.0.23",
  "updatedAt": "2020-04-18T16:41:42.084Z",
  "networkType": "ethereum",
  "devdoc": {
    "methods": {
      "__callback(bytes32,string)": {
        "details": "The following `__callback` functions are just placeholders ideally     meant to be defined in child contract when proofs are used.     The function bodies simply silence compiler warnings."
      }
    }
  },
  "userdoc": {
    "methods": {}
  }
}